:020000040800F2
:10000000B8050020AD01000861280008B5250008EA
:100010005D280008690700082D2C0008000000007A
:100020000000000000000000000000006928000837
:100030008507000800000000652800086D280008FA
:10004000C7010008C7010008C7010008C701000870
:10005000C7010008C7010008C7010008C701000860
:10006000C7010008C7010008C7010008C701000850
:10007000C7010008C7010008C7010008C701000840
:10008000C70100086D070008C70100080000000054
:10009000000000000000000000000000C701000890
:1000A000C7010008C7010008C7010008C701000810
:1000B000C7010008C701000829290008C701000876
:1000C000C7010008C7010008C7010008C7010008F0
:1000D000C7010008C7010008212C0008000000002B
:1000E000C7010008C7010008C701000800000000A0
:1000F000000000000000000000000000C701000830
:1001000000000000C7010008C7010008C70100087F
:1001100000000000000000000000000000000000DF
:1001200079070008C7010008C7010008C7010008D7
:10013000C7010008000000000000000000000000EF
:10014000000000000000000000000000C7010008DF
:10015000C7010008C7010008C7010008C70100085F
:10016000C7010008C70100080000000000000000EF
:10017000000000000000000000000000000000007F
:1001800000000000C701000800000000000000009F
:10019000C7010008C7010008DFF80CD000F05CFAC6
:1001A00000480047312C0008B80500200648804769
:1001B00006480047FEE7FEE7FEE7FEE7FEE7FEE74C
:1001C000FEE7FEE7FEE7FEE71529000899010008B3
:1001D0002DE9F05F0546002092469B46884606467C
:1001E000814640241BE0284641464746224600F00F
:1001F0006AF853465A46C01A914110D31146184620
:10020000224600F051F82D1A67EB01084F462246AE
:100210000120002100F048F817EB00094E41201E94
:10022000A4F10104DFDC484631462A464346BDE8D6
:10023000F09FD2B201E000F8012B491EFBD27047BB
:100240000022F6E710B513460A4604461946FFF7A2
:10025000F0FF204610BD00F0004230F000400AD010
:10026000C10D01F56071C0F3160042EA0151C208E8
:1002700040071143704700200146704730B50B46D8
:10028000014600202022012409E021FA02F59D42C6
:1002900005D303FA02F5491B04FA02F52844151E9A
:1002A000A2F10102F1DC30BD202A04DB203A00FA81
:1002B00002F1002070479140C2F1200320FA03F3BD
:1002C000194390407047202A04DB203A21FA02F0BB
:1002D0000021704721FA02F3D040C2F12002914080
:1002E0000843194670472DE9FE4F804681EA030016
:1002F000C00F0C46009021F0004123F00045B8EB00
:100300000200A94105D24046214690461C460B46B4
:10031000024623F00040104347D0270DC7F30A00E0
:10032000C3F30A510290401A019040286BDAC3F3DC
:10033000130040F4801B0098924620B10023D2EBBA
:10034000030A63EB0B0B01985946C0F1400250467B
:10035000FFF7AAFF06460D4650465946019A00F09F
:1003600093F910EB08006141002487EA115284EAF6
:10037000E7731A4340D0009A62B3019A012A4FEA08
:10038000075215DC001B61EB02014FF0004202EA4C
:100390000752CDE90042001C41F5801132462B4640
:1003A00000F093F903B0BDE8F08F40462146F9E72D
:1003B000001B61EB0201001C41F5801300185B413A
:1003C0002018A2F5001747EB030140EAD570B619D3
:1003D0006D4111E06D084FEA360645EAC0754FEAF7
:1003E0000752001B61EB0201001C41F58011490816
:1003F0004FEA30000019514132462B4603B0BDE8A8
:10040000F04F00F053B90098012240000023D0EBD8
:10041000020263EBE073009821464FEAE074B8EB08
:10042000000061EB0401E9E783F000435BE781F042
:10043000004158E72DE9FE4F81EA030404F000442F
:1004400021F0004100944FF0000B23F0004350EAEC
:1004500001045ED052EA03045BD0C3F30A54C1F333
:100460000A552C44A4F2F3340194A0FB0254C1F3C6
:10047000130141F48011C3F3130343F4801301FB10
:10048000024400FB034E840A970A44EA815447EA77
:100490008357A4FB076802958D0A05FB07854FEA81
:1004A000932C04FB0C542705029D4FEA065847EA9B
:1004B0001637B5EB08056EEB070C870E920E47EA70
:1004C000811742EA8312A7FB0201B6EB0B0164EB32
:1004D00000042B0D43EA0C335E1844EB1C50DA4643
:1004E0005146E7FB0201C5F313044FEA0B3343EA1D
:1004F00014534FEA0432019C43EA0603A4F10C04AE
:100500000294009CCDE900B400F0DFF803B0BDE830
:10051000F08F00200146F9E72DE9F04D81EA030450
:1005200004F0004B21F0004514464FF0000A23F080
:10053000004150EA050220D054EA01021DD0C5F363
:100540000A570246C5F31303C1F31300C1F30A5659
:1005500040F4801543F48013A7EB0608101BD64621
:1005600008F2FD3873EB050002D308F1010801E041
:1005700092185B41B8F1000F03DA00200146BDE894
:10058000F08D00204FF48011064684460EE0171BC4
:1005900073EB050705D3121B63EB050306434CEA17
:1005A000010C49084FEA300092185B4150EA0107FC
:1005B000EDD152EA030012D082EA040083EA050179
:1005C000084305D0101BAB4106D20122002306E0F0
:1005D00000224FF0004302E06FF0010253101AEBCB
:1005E00006004CEB085110EB0A0041EB0B01BDE893
:1005F000F04D00F05BB8C1F30A52C1F3130140F2B1
:10060000FF3341F480119A4202DA0020014670471C
:1006100040F233439A42A2F2334202DC5242FFF7E5
:1006200052BEFFF741BE000030B5041E71F1000458
:1006300004DB4FF00044404264EB0101141E73F1EF
:10064000000405DB1C464FF00043524263EB0403F9
:10065000994208BF904230BD1CB509480090094836
:1006600001900546009C06E0E06840F0010394E834
:10067000070098471034AC42F6D3FFF791FD000015
:1006800080350008A0350008202A06DBCB17203A69
:1006900041FA02F043EAE07306E041FA02F3D04087
:1006A000C2F12002914008431946704710B5141E4C
:1006B00073F1000408DA401C41F1000192185B411B
:1006C0001A4301D120F0010010BD2DE9F04D9246F2
:1006D0009B4611B1B1FA81F202E0B0FA80F2203209
:1006E0009046FFF7E1FD04460F4640EA0A0041EA62
:1006F0000B0153465A46084313D0114653EA0100F2
:1007000019D0C8F140025046FFF7DDFD05460E4600
:10071000504659464246FFF7C7FD084305D0012021
:1007200004E020463946BDE8F08D0020054346EA46
:10073000E0762C4337430A986305E40AA0EB0800EF
:100740000022FD0A44EA47540A3002D5002001463F
:10075000E9E7010510196941DDE90845001969411A
:10076000BDE8F04DA2E70000FEE7000040F2C40043
:10077000C2F2000000F0B6BA40F26400C2F200001B
:1007800000F0B0BA7047000072B600BFFEE700008C
:1007900090F83C20012A04BF02207047F0B5D1F840
:1007A00000E001221FFA8EF77B0080F83C200EEB60
:1007B0004E0413FA8EF31022BEF1090F88BFA3F185
:1007C0001E0488BF0C2203684FF0070C9E580CFAD9
:1007D00004F526EA05069E508E689D5806FA04F632
:1007E00046EA05069E509A6B98BF774622F440125F
:1007F0009A63D1F804C00A6900258C69CFF6F075B8
:100800009E6B05EB0255ACEB0202354303329D6350
:10081000D5B2AD0055FA82F21F259E6B954026EAAF
:1008200005059D639D6B07FA02F22A439A639A6855
:10083000012522F470229A609A68C0F20F05AC423A
:1008400002D122F4401208E022439A609A6822F40E
:1008500040129A60CA699C6822439A600A7D4C7D66
:100860005D68002C25F4806518BF05F580655D6026
:100870005C68002A24F48054ACF101024FF0200699
:1008800018BF04F580545C601427032A38BF07EBB7
:1008900082069A5940F6FF77BA439A51CA689F591F
:1008A00042F20431C4F201013A43A1F54177BB425F
:1008B0009A5105D0002180F83C100020F0BD00BF07
:1008C0001222C1F20002964505D0BEF1120F05D0EA
:1008D000BEF1110FEED14FF4000201E04FF480029F
:1008E0000B681A430A60002180F83C100020F0BD1C
:1008F000F0B581B00022009290F83C20012A03D18B
:10090000022001B0F0BD00BF0F6801231FFA87FC71
:1009100080F83C304FEA4C0307EB470213FA87F3A9
:100920001024092F88BFA3F11E0288BF0C2403687E
:100930004FF0070E1E590EFA02F5AE431E518E6897
:100940001D5906FA02F22A431A514968062907D8A6
:1009500001EB81014A1F194651F8345F0FE000BFD7
:100960000C2901EB810105D8A1F12302194651F8A8
:10097000305F04E0A1F14102194651F82C5F1F26B7
:10098000964025EA06060E600CFA02FE42F2043C8E
:100990000A68C4F2010CACF5417642EA0E02B34299
:1009A0000A6005D0002180F83C10002001B0F0BDA5
:1009B0001221112FC1F2000118BF8F423AD1DCF889
:1009C00000208F4222F48002CCF80020DCF80020C6
:1009D00042F40002CCF80020E4D140F20C01C2F253
:1009E000000109684DF68362C4F21B32A1FB0212BA
:1009F000910C01EB81014900009100990029D1D0AF
:100A000000990139009100990029CBD00099013952
:100A1000009100990029C5D00099013900910099F1
:100A20000029BFD000990139009100990029E7D130
:100A3000B8E700BF122FB5D1DCF8001021F4000197
:100A4000CCF80010DCF8001041F48001CCF8001064
:100A5000A8E70000002804BF0120704710B5016C12
:100A600000293DD0016CC90645D4016C41F2021247
:100A70009143023142F204320164C4F2010211686E
:100A800021F440311160136890E812102343D0F82C
:100A900010E013604A68012422F480724A604A68B8
:100AA000C0F6007442EA0E224A604A6822F04072A0
:100AB0004A604A6842EA0C024A608A6822F400628C
:100AC0008A60C2688B681A438A60826A8B68A24215
:100AD00023F070638B608B6810D123F0405216E0D6
:100AE000044600F065F820460021616484F83C105B
:100AF000016CC906B9D5012153E000BF1A438A60D1
:100B00008A6822F040528A60C26A8B681A438A60FF
:100B10008A6822F002028A608A68037E90F8204088
:100B200042EA43028A604A6884B142F400624A6041
:100B30004A684EF2000322F460424A60426ACFF6ED
:100B4000FF734C6803EB4232224301E022F400625F
:100B50004A60CA6A40F2000C22F47002CA62C36999
:100B60004269CFF6F07CCC6A0CEB03532343CB6293
:100B70008B6823F400738B6090F830308C6844EA03
:100B800043238B608B6823F480638B608B6843EA1C
:100B900082228A6000214164026C012363F3010216
:100BA0000264002280F83C20BDE8104008467047EF
:100BB000B0B582B00446006842F20001C4F20101FF
:100BC000884201D002B0B0BD002043F6440101903C
:100BD000C4F202010A6840F2640542F480720A60BD
:100BE0000968C2F2000501F480710191019946F291
:100BF0001041C4F202014FF48062C5E90010C5E95A
:100C0000020005F11001C5E90700686228464FF4AB
:100C100000634FF4005C81E80C1000F045F90028F7
:100C200018BFFFF7B1FDA563AC6302B0B0BD000013
:100C300070B5866D044600F0C5FA94F835100229A7
:100C400028D105462068216C026822F01602026055
:100C5000426922F08002426109B9A16C19B10168B0
:100C600021F008010160016821F00101016000BF6D
:100C700020680068C00715D000F0A4FA401B0628C1
:100C8000F6D320206065032084F83500002184F825
:100C9000341070BD802060650120002184F834107C
:100CA00070BD00BFE06D3F2101FA00F0B06001208F
:100CB00084F835000020002184F8341070BD000055
:100CC00090F83510022909D1052180F83510006807
:100CD000016821F001010160002070478021416519
:100CE00001207047F0B581B00021009140F20C0165
:100CF000C2F200010B68D0E9166148F2B5153768F9
:100D00000822C1F64E358A403A42A3FB05350CD085
:100D100003681C68640708D51C6824F004041C6080
:100D2000B260426D42F00102426501228A403A42BD
:100D300008D003685B691B0604D5B260426D42F0BF
:100D40000202426504228A403A4208D003681B68C6
:100D50009B0704D5B260426D42F004024265102246
:100D60008A403A4219D001680B681B0715D5B2605A
:100D70000B680A685B0309D4D20509D40A6822F01B
:100D800008020A60016C29B907E000BF110341D4D1
:100D9000016C11B1044688472046C26D202101FA3A
:100DA00002F33B4243D001680F68FF063FD5B360B2
:100DB00090F835700B68052F1CD123F016030B60DB
:100DC0004B6923F080034B61036C0BB9836C1BB13F
:100DD0000B6823F008030B603F219140B1600121B3
:100DE00080F83510016D0022002980F8342054D19C
:100DF00058E000BF0A685B0310D4D20512D40A6819
:100E000022F010020A60012180F83510002180F8DC
:100E1000341007E0816C0029BCD1BEE7110301D476
:100E2000416C00E0C16B11B1044688472046416D1A
:100E3000C1B3416DC9072ED0052180F83510016876
:100E4000AA0A0B6823F001030B60009B0133934255
:100E500000931AD80B68DB0717D0009B013393422D
:100E6000009312D80B68DB070FD0009B013393422D
:100E700000930AD80B68DB0707D0009B013393422D
:100E8000009302D80B68DB07DFD1012180F8351011
:100E9000002180F83410C16C21B101B0BDE8F040F0
:100EA000084700BF01B0F0BD2DE9F041044600F055
:100EB00089F9ECB10546022084F83500002021684C
:100EC00084F83400086820F0010008602168086890
:100ED000C00711D000F076F9401B0528F6D903258C
:100EE00020230320636584F83550BDE8F08100BFFE
:100EF0000120BDE8F08100BF086848F23F02CFF250
:100F00001002D4E9013500EA020C04F10C0898E85B
:100F1000C10143EA0C032B431843D4E9072E3043A5
:100F200038431043626A40EA0E00042A40EA08038C
:100F30001CD1206BD4E90A2E40EA0E001843086049
:100F40004869BEF1000F20F0030040EA020040F0C3
:100F5000040C11D0B8F5005F36D0B8F1000F45D1C0
:100F6000022A46D0012A3BD032B942E00B604869E0
:100F700020F0070040EA020C01F0F8004AF6AB222C
:100F80001038CAF6AA22A0FB02231A0943F27853AA
:100F9000C1F814C0C0F600039A5C40F2FF335F282A
:100FA0004FF03F0021EA030100FA02F088BF04314C
:100FB000C4E916128860002301250020636584F8C7
:100FC0003550BDE8F08100BF032AD5D80125402364
:100FD0000120DFE802F0030E030500BF82E700BF37
:100FE000AEF1C070B0FA80F0400904E0032A04D3E7
:100FF000C2D1CEF300600028BED0012540230120DD
:10100000636584F83550BDE8F08100002DE9F04FAC
:1010100083B000F1200200F13E4741F2000500924A
:1010200007F1FF77C4F2020507224FEAB726A8426C
:1010300008BF042200254FF000084FF00009042EDD
:1010400038BF4FEAB72201920AE000BF09F1010957
:1010500008F10208B9F1100F05F1040500F0A280B3
:101060000F68012202FA09FE17EA0E0AEED0D1F843
:1010700004C003220CF003077E1E02FA08F4012EBE
:101080006FEA040B12D88468CE6804EA0B0406FAEF
:1010900008F634438460446824EA0E06CCF3001456
:1010A00004FA09F42643466004E000BF032F01D18F
:1010B00003271EE0C6688C6806EA0B0604FA08F4EB
:1010C0002643022FC66014D16FF00302009E02EA8D
:1010D000590756F807C005F01C040F220B69A240FF
:1010E0002CEA0202A3401A43F251D1F804C00CF0DA
:1010F0000307026807FA08F302EA0B021A431CF41A
:10110000403F0260A2D0002243F644030292C4F2A0
:1011100002031A6843F6004442F480421A601A68D7
:10112000C4F2010402F480420292029A29F00302FE
:101130004FF6084C2244CFF6FF7C52F80C3005F0F5
:101140000C070F26BE40B343019E06FA07F73B4348
:1011500042F80C30A2684B6842EA0A0743F60C4C8E
:10116000DE0258BF22EA0A07A760C4F2010CDCF8CD
:1011700000209E0242EA0A0758BF22EA0A07CCF87A
:10118000007062689E0342EA0A0758BF22EA0A0713
:1011900067602268DB0342EA0A0758BF22EA0A07AF
:1011A000276053E703B0BDE8F08F000000690840F6
:1011B00018BF012070470000002A08BF09048161A0
:1011C0007047000040F2B410C2F20000006870479F
:1011D00040F2040040F2B411C2F20000C2F2000179
:1011E00000780A68104408607047000080B543F634
:1011F0000040C4F20200016841F40071016001681E
:1012000041F480610160016841F480710160032054
:1012100000F086F8002000F005F800F027F8002024
:1012200080BD000070B540F20406C2F2000640F234
:101230000C013278C2F200014FF47A730968B3FBF3
:10124000F2F20446B1FBF2F1084600F061FB0F2C0C
:101250004FF0010508D838B94FF0FF302146002281
:10126000002500F031F87460284670BD82B000207F
:1012700043F640010190C4F202014A6842F4804200
:101280004A604A6802F480420192019A009008681C
:1012900040F080500860086800F08050009000988E
:1012A00002B07047002848BF704700F01F010122BC
:1012B00002FA01F11C2202EAD0004EF20012CEF234
:1012C000000281507047000010B54EF60C5CCEF263
:1012D000000CDCF80030C3F3022E8EF00704042C5F
:1012E00028BF0424BEF103034FF0FF3E0EFA04F4BE
:1012F00038BF0023A14399400EFA03F39A431143E8
:1013000000F00F0200F160430901043A03F5644361
:101310006244002848BF02F10C03197010BD0000A0
:101320004EF60C51CEF200010A684FF6FF031A4048
:1013300060F30A2242F0806040F0FD700860704760
:10134000002804BF012070472DE9F04143F608084A
:10135000C4F202080446D8F8F8030D4600F007006E
:10136000814207D988F8F853D8F8F80300F007004D
:10137000A84277D12068810717D5410705D5D8F84D
:10138000001041F4E051C8F80010010705D5D8F865
:10139000001041F46041C8F80010D8F80010A268AD
:1013A00021F0F0011143C8F80010C00740D1D8F86F
:1013B000F80300F00700854207D288F8F853D8F800
:1013C000F80300F00700A8424CD12068410707D578
:1013D000D8F80010E26821F4E0511143C8F8001079
:1013E000000708D5D8F80000216920F4604040EAE1
:1013F000C100C8F8000000F07DF8D8F8001043F2F2
:101400006052C1F30311C0F60002515C40F20C02BD
:1014100020FA01F140F20800C2F200000068C2F2B6
:1014200000021160FFF7FEFE0020BDE8F08100BF62
:101430006068811E022907D258F8081C89015CBF28
:101440000120BDE8F08111E0012807D158F8081CFF
:1014500089035CBF0120BDE8F08107E058F8081C53
:10146000890703D40120BDE8F08100BFD8F800103F
:1014700021F003010843C8F80000FFF7A3FE064669
:1014800041F28837D8F80000616800F00C00B0EB3A
:10149000810F8CD0FFF796FE801BB842F2D9032053
:1014A000BDE8F08140F20C0043F60801C2F20000F2
:1014B000C4F202010068096843F27052C1F382214C
:1014C000C0F60002515CC8407047000040F20C00BA
:1014D00043F60801C2F20000C4F202010068096884
:1014E00043F27052C1F34231C0F60002515CC84071
:1014F0007047000010B543F60404C4F202046168AA
:10150000C1F3810142F20040C0F2F400DFE801F0D3
:1015100002040A0210BD00BF41F20020C0F27A00AE
:1015200010BD00BF216801F03F0221682368490215
:10153000C3F3881106D4A1FB00010023FEF748FE87
:1015400007E000BF41F20020C0F27A004843B0FB40
:10155000F2F021680222C1F3014102EB4101B0FB2C
:10156000F1F010BD002804BF012070472DE9F041C3
:1015700082B00446007843F60006C007C4F20206B3
:101580000CD0B06800F00C00042840F08180306876
:10159000800303D56068002800F068812078800708
:1015A0001BD5B06810F00C0F09D0B06800F00C002B
:1015B000082840F087807068400200F1838030681E
:1015C000800703D5E068012840F050813068216928
:1015D00020F0F80040EAC10030602078000713D402
:1015E000207840072AD4A569002D00F03A81B06820
:1015F00000F00C00082840F0A580012D40F00E817D
:10160000012002B0BDE8F0816069002800F082800E
:101610000020C4F247200121C0F8801EFFF7D2FD50
:10162000054600BF706F8007DAD4FFF7CBFD401B83
:101630000228F7D9032002B0BDE8F081306C5FEAE0
:10164000C0080AD400200190306C40F08050306413
:10165000306C00F080500190019847F20007C4F20E
:1016600000073868C00547D4386840F48070386097
:10167000FFF7A8FD054600BF3868C0053CD4FFF75A
:10168000A1FD401B0228F7D9032002B0BDE8F0817C
:10169000B06800F00C00082803D1706840023FF5E4
:1016A00076AF61683068B1F5803F07D0B1F5A02F03
:1016B00040F09A8040F480203060306840F4803000
:1016C00030609AE0E068002840F20000C4F2472051
:1016D0005CD001210160FFF775FD05463068800789
:1016E0003FF574AFFFF76EFD401B0228F6D90320CB
:1016F00002B0BDE8F08100BFA168306F012905D0BC
:10170000052955D140F004003067306F40F00100EA
:10171000306756E00020C4F247200021C0F8801E48
:10172000FFF750FD054600BF706F80077FF558AF8B
:10173000FFF748FD401B0228F6D9032002B0BDE8A0
:10174000F08100BF0027C4F2472700203866FFF76A
:1017500039FD022D05460DD13068800140F18A80A7
:10176000FFF730FD401B02284FF00300F4D902B010
:10177000BDE8F0813068800173D5FFF723FD401B81
:1017800002284FF00300F5D9F1E700BF0021016006
:10179000FFF718FD054600BF306880077FF51DAFD5
:1017A000FFF710FD401B02284FF00300F4D9DEE7DD
:1017B00020F001003067306F002920F0040030670E
:1017C0007AD0FFF7FFFC054641F28837306F80077B
:1017D00000F18480FFF7F6FC401BB842F6D90320E5
:1017E00002B0BDE8F08100BF20F480303060306886
:1017F000002920F4802030607AD0FFF7E3FC054612
:10180000306880033FF5CAAEFFF7DCFC401B64285C
:10181000F6D9032002B0BDE8F08100BF7068E1692D
:1018200000F480028A4221D1216A00F03F028A42FC
:101830001CD147F6C071626A0140B1EB821F15D11D
:10184000A16A4FF6FF73C903994300F44032A1F532
:1018500080318A420AD1E16A00F07060B0EB016F1A
:1018600004D1002002B0BDE8F08100BF012002B029
:10187000BDE8F08104F11C052FCD084340EA821039
:10188000D9034FF6FF729143A1F5803140EA05601C
:101890000843706001203866FFF794FC044600BFDF
:1018A00030688001DDD4FFF78DFC001B02284FF06B
:1018B0000300F5D95BE700BFFFF784FC054641F262
:1018C000883700BF306F800708D5FFF77BFC401BCF
:1018D000B8424FF00300F5D949E700BFB8F1000F57
:1018E0003FF581AE306C20F0805030647BE600BF65
:1018F000FFF768FC054600BF306880037FF54EAEF9
:10190000FFF760FC401B64284FF00300F4D92EE77A
:10191000411E0020B0EB116F1CBF012070474EF23A
:101920001002CEF2000251604EF62351CEF20001B9
:10193000F0230B7007219060116070477047000022
:101940007047000090F83C20012A4FF0020241D07D
:1019500010B580F83D200268D2F804E0D2F808C043
:101960000C682EF07003234340F6FF34C4F20004E9
:10197000A242536010DCB2F1804F1ED040F200430F
:10198000C4F200039A4218D040F60003C4F20003E8
:101990009A4212D016E000BF40F60043C4F20003A2
:1019A0009A420AD044F20003C4F201039A4204D0DE
:1019B0000023C4F201039A4204D149682CF0800349
:1019C000194391600121002280F83D1080F83C20ED
:1019D000BDE8104010467047002804BF0120704742
:1019E00010B5044690F83D0028B9002084F83C006A
:1019F000204600F01FF8022084F83D002068211DD9
:101A000000F098FF012084F8460084F83E0084F836
:101A10003F0084F8400084F8410084F8420084F8D4
:101A2000430084F8440084F8450084F83D00002019
:101A300010BD0000006840F60001C4F200018842B9
:101A400018BF704780B582B00020019043F6400077
:101A5000C4F202000168002241F004010160006844
:101A6000002100F00400019001981E20FFF72CFCDB
:101A70001E2002B0BDE88040FFF714BC90F83D1076
:101A800001291CBF01207047022180F83D10006829
:101A900040F6FF32C168C4F20002904241F00101F9
:101AA000C1600FDCB0F1804F1DD040F20041C4F2A4
:101AB0000001884217D040F60001C4F200018842BC
:101AC00011D017E040F60041C4F2000188420AD06C
:101AD00044F20001C4F20101884204D00021C4F2A2
:101AE0000101884206D1816801F00701062904BF7F
:101AF00000207047016841F001010160002070473B
:101B000090F83C20012A4FF002026CD080B580F89A
:101B10003D20D0F800C04FF67772DCF8083023EA99
:101B20000202CCF808200B684F2B29DC1F2B45DD67
:101B3000202B46D0302B44D0402B40F0AF80D1F842
:101B400004E0C968DCF82030DCF8202022F0010233
:101B5000CCF82020DCF8182022F0F00242EA011133
:101B600023F00A0242EA0E02CCF81810CCF820202A
:101B7000DCF8081041F0470121F0300128E000BFF7
:101B80006F2B33DDB3F5005F74D0B3F5805F21D0E8
:101B9000702B40F08380D1E901E3C968DCF80820AC
:101BA00043EA0E0322F47F4243EA01211143CCF8B9
:101BB0000810DCF8081041F0770109E00BB1102B98
:101BC0006CD1DCF8081021F07001194341F00701D5
:101BD000CCF808100022012180F83D10002180F887
:101BE0003C10BDE880401046704700BF502B21D00C
:101BF000602B53D1D1F804E0C968DCF82030DCF860
:101C0000202022F01002CCF82020DCF8182022F44A
:101C1000704242EA013123F0A00242EA0E12CCF8EF
:101C20001810CCF82020DCF8081041F0670121F0F2
:101C30001001CDE7D1F804E0C968DCF82030DCF809
:101C4000202022F00102CCF82020DCF8182022F01D
:101C5000F00242EA011123F00A0242EA0E02CCF835
:101C60001810CCF82020DCF8081041F0570121F0C2
:101C70002001ADE7D1E901E3C968DCF8082043EAB7
:101C80000E0322F47F4243EA01211143CCF80810ED
:101C9000DCF8081041F480419AE700BF01229AE77E
:101CA0007047000070B504460068C5680669B10752
:101CB00016D515F0020113D06FF002010161012168
:101CC00021778069800703D02046FFF7E9FF05E010
:101CD000204600F08FF8204600F08EF80020207794
:101CE000700719D515F0040016D020686FF00401B4
:101CF000016102212177806910F4407F04D02046E1
:101D0000FFF7CEFF06E000BF204600F073F8204644
:101D100000F072F800202077300717D515F0080082
:101D200014D020686FF00801016104212177C06997
:101D3000800703D02046FFF7B3FF05E0204600F000
:101D400059F8204600F058F800202077F00619D501
:101D500015F0100016D020686FF010010161082105
:101D60002177C06910F4407F04D02046FFF798FF28
:101D700006E000BF204600F03DF8204600F03CF8A9
:101D800000202077F00718BF15F0010002D13006BF
:101D900009D412E020686FF001010161204600F0D3
:101DA0002DF8300609D515F0800006D020686FF0B8
:101DB000800101612046FFF7C1FD700609D515F0CD
:101DC000400006D020686FF040010161204600F01D
:101DD0008DF8B00658BF70BD15F0200008D02168FE
:101DE0006FF0200220460A61BDE87040FFF7A8BDF1
:101DF00070BD0000704700007047000070B52DED09
:101E0000028B82B0006840F60006C4F20006B042C1
:101E100004D002B0BDEC028B70BD00BF40F21000D8
:101E2000C2F20000018959B100EE101A9FED251A87
:101E3000B8EE400A81EE000A80ED000A02E000BF21
:101E400090ED000A41899FED202A01EE101AB8EEAC
:101E5000411A81EE021A9FED1D2A9FED1D3A20EED8
:101E6000011A31EE021A81EE031AB3EE092A31EE9D
:101E7000028A80ED018A10EE100AFEF7ECF90446A2
:101E800018EE100A0D46FEF7E6F941EC100B11A012
:101E900022462B468DED000B00F0E0FE06F50030EB
:101EA0004FF40051FFF782F9B0FA80F0420906F5CD
:101EB000FC30202102B0BDEC028BBDE87040FFF782
:101EC0007BB900BF9AD79A4500F07F455C8F42BF2F
:101ED0000AD7233B5644443D252E336656202054D2
:101EE000656D703D252E32660D0A000070470000BA
:101EF0007047000070470000B0B582B001680A6802
:101F0000CC684B6902F02F05202D04F0200505D187
:101F100025B102B0BDE8B04000F08EBD5FEA027CA2
:101F20001EBF03F0010E04F4907313EB0E0341D1B6
:101F3000036BD50618D5012B16D114F0100313D05E
:101F4000002201920A6801924A680192019A496945
:101F500049064BD4818DC28DC38D002B18BF914291
:101F600040F0068202B0B0BD13062DD514F08003F8
:101F70002AD090F84120212AF4D18268B2F5805FFE
:101F800003D10269002A00F07982026A531C0362BD
:101F900012784A60C28C013A1304C284E2D1C86844
:101FA00020F08000C860C86840F04000C86002B0FF
:101FB000B0BD00BFD30718BF14F4807340F0E280B7
:101FC000530700F1E580EAE05206CBD514F0400259
:101FD000C8D0CA6822F04002CA60202180F84110AF
:101FE00002B0BDE8B04000F0E3BA00BFC26B1168B8
:101FF0004B68858D99B2002900F0B480A94280F029
:10200000B180C385D169B1F5807F00F0A0800168FF
:1020100051E8031F026821F4807142E80313DBB129
:10202000016851E8031F026821F4807142E803133C
:1020300093B1016851E8031F026821F4807142E8FE
:1020400003134BB1016851E8031F026821F480714A
:1020500042E80313002BDAD1016851E8051F02683A
:1020600021F0010142E80513BBB3016851E8051FE7
:10207000026821F0010142E8051373B3016851E8D9
:10208000051F026821F0010142E805132BB3016826
:1020900051E8051F026821F0010142E80513002BF9
:1020A000DAD11AE0016851E8051F026821F0400109
:1020B00042E80513DBB1016851E8051F026821F011
:1020C000400142E8051393B1016851E8051F026819
:1020D00021F0400142E805134BB1016851E8051FAA
:1020E000026821F0400142E80513002BDAD12021DB
:1020F00080F8421000210163016851E8031F026863
:1021000021F0100142E80313DBB1016851E8031F1D
:10211000026821F0100142E8031393B1016851E80D
:10212000031F026821F0100142E803134BB101685C
:1021300051E8031F026821F0100142E80313002B4D
:10214000DAD1C16B04460846FEF772FD2046022133
:102150004163818DC28D891A89B202B0BDE8B04059
:10216000FFF7C6BE8D427FF4FDAED269B2F5807F27
:102170007FF4F8AE0222426302B0BDE8B040FFF740
:10218000B7BE00BF436C43F001034364530706D559
:10219000BEF1000F03D0436C43F002034364930786
:1021A00006D5BEF1000F03D0436C43F00403436433
:1021B000BCF1000F06D55EEA050303D0436C43F083
:1021C00008034364436C002B3FF4CCAE920605D564
:1021D00025B1044600F030FC216820464969426C74
:1021E00001F0400102F00802891800F0B98000BF38
:1021F000016851E8031F026821F4907142E803135B
:10220000BBB3016851E8031F026821F4907142E8F2
:10221000031373B3016851E8031F026821F490713E
:1022200042E803132BB3016851E8031F026821F44D
:10223000907142E80313002BDAD11AE0016851E8EB
:10224000051F026821F0010142E80513DBB10168B6
:1022500051E8051F026821F0010142E8051393B11E
:10226000016851E8051F026821F0010142E80513E9
:102270004BB1016851E8051F026821F0010142E8F5
:102280000513002BDAD1016B012924D1016851E833
:10229000031F026821F0100142E80313DBB101685B
:1022A00051E8031F026821F0100142E8031393B1C3
:1022B000016851E8031F026821F0100142E803138E
:1022C0004BB1016851E8031F026821F0100142E898
:1022D0000313002BDAD1202180F842100021016382
:1022E00001684969490640F1C380016851E8051F4A
:1022F000026821F0400142E80513DBB1016851E8B2
:10230000051F026821F0400142E8051393B10168FE
:1023100051E8051F026821F0400142E805134BB166
:10232000016851E8051F026821F0400142E80513E9
:10233000002BDAD1C16B002900F09A8042F62D22E1
:10234000C0F60002044608460A65FEF7B9FC0028FC
:102350003FF408AEE06B016D02B0BDE8B040084745
:102360000446FFF7C7FD0020606402B0B0BD00BFA7
:10237000891A00BF026852E8032F036822F49072A2
:1023800043E80325BDB3026852E8032F036822F433
:10239000907243E8032575B3026852E8032F03687F
:1023A00022F4907243E803252DB3026852E8032F0C
:1023B000036822F4907243E80325002DDAD11AE075
:1023C000026852E8052F036822F0010243E8052560
:1023D000DDB1026852E8052F036822F0010243E8EC
:1023E000052595B1026852E8052F036822F0010225
:1023F00043E805254DB1026852E8052F036822F035
:10240000010243E80525002DDAD1202280F8422080
:1024100000220263026852E8032F036822F01002D0
:1024200043E80325DDB1026852E8032F036822F078
:10243000100243E8032595B1026852E8032F0368B0
:1024400022F0100243E803254DB1026852E8032F41
:10245000036822F0100243E80325002DDAD102229E
:1024600089B2426302B0BDE8B040FFF741BD00BF92
:1024700002B0BDE8B040FFF73DBD00BF026A32F8D0
:10248000023B6FF35F234B60026283E5002804BFC9
:102490000120704710B5044690F8410028B900208B
:1024A00084F84000204600F021F8242084F8410000
:1024B0002068C16821F40051C160204600F03CFB57
:1024C0002068016921F490410161416921F02A01EC
:1024D0004161C16841F40051C16000202021606465
:1024E00084F8411084F84210606310BD70B586B066
:1024F000044644F200402168C4F2000000268142F4
:102500000596CDE903660296019601D006B070BD2E
:1025100043F630010096C4F202010A6900F5DE308C
:1025200042F400320A610A6902F400320092009A11
:1025300000960A6842F001020A60096801F0010190
:10254000009100990C2101910221CDE9021603218D
:1025500004910721059101A9FEF758FD40F2C40539
:1025600046F2A000C2F20005C4F202004FF0006182
:1025700040224FF4806385E847002846C5E90436C9
:10258000C5E90666C5E90866FEF78EFC002818BF97
:10259000FEF7FAF8262000210022A563AC63FEF7BF
:1025A00093FE2620FEF77EFE06B070BD7047000049
:1025B00070470000FEE70000B0B58CB040F21C0090
:1025C00042F2000101230024C2F20000C4F2010122
:1025D0000125C0F600730B94CDE90644CDE904440F
:1025E000CDE90244CDE900444FF48032047680F80E
:1025F0002040C0E90A34C56180F8304080E8160008
:10260000C0E903454561FEF725FA002818BFFEF72B
:10261000BBF81120CDE9080540F21C00C2F2000011
:1026200008A90A94FEF764F9002818BFFEF7ACF871
:102630001220C1F2000000900120019003200490BC
:102640000020012102900790C0F20F01ADF81400A4
:10265000039040F21C000691C2F200006946FEF7AA
:1026600097F8002818BFFEF78FF80220019040F27B
:102670001C00C2F200006946FEF78AF8002818BF65
:10268000FEF782F80320019040F21C00C2F2000025
:102690006946FEF77DF8002818BFFEF775F80CB004
:1026A000B0BD000080B582B0002043F6300101903B
:1026B000C4F202010A6842F400120A600A6802F4D5
:1026C00000120192019A00900868002240F48000F4
:1026D00008600868002100F4800000900098112034
:1026E000FEF7F2FD1120FEF7DDFD3820002100226B
:1026F000FEF7EAFD382002B0BDE88040FEF7D2BD0B
:10270000F0B587B0002643F630000696CDE90466A2
:10271000CDE902660196C4F202000168002441F08E
:10272000040101600168C4F2020401F00401019196
:10273000019901960168002241F080010160016861
:10274000202701F08001019101990196016841F073
:10275000010101600068202100F001000190019852
:102760002046FEF729FD4FF4005002ADCDE90206E8
:1027700004F5006029460496FEF748FC0120CDE9E7
:1027800003062046294602970596FEF73FFC802067
:1027900002904FF48810CDE9030620462946FEF743
:1027A00035FC07B0F0BD000080B586B040F22410C3
:1027B00040F600020021C2F20000C4F2000242F220
:1027C0000F734FF0630C0591CDE90311CDE90011B2
:1027D000C0E90023C0E9021C01618161FFF7FCF838
:1027E000002818BFFDF7D0FF4FF48050029040F250
:1027F0002410C2F2000002A9FFF782F9002818BFD6
:10280000FDF7C2FF40F22410C2F200006946FFF754
:1028100099F8002818BFFDF7B7FF06B080BD00008B
:1028200080B540F26C1044F20041C2F20000C4F2E4
:10283000000100234FF00C0C4FF4E13280E80E0051
:10284000C0E90333C0E905C3C361FFF71FFE0028D9
:1028500008BF80BDBDE88040FDF796BFFEE70000E1
:10286000FEE700007047000070470000FEF7B0BCB4
:1028700070B592B006AC20463021FDF7E1FC002592
:1028800043F640000595CDE90355CDE90155009586
:10289000C4F202000168022641F080510160006824
:1028A00000F080500090009847F200000095C4F2BC
:1028B0000000016841F4404101600068642100F4B7
:1028C000404000900098012006904FF4A02007900F
:1028D0004FF480000D9004200E90119020460C962D
:1028E000CDE90F16FEF73EFE10B172B6FEE700BF4F
:1028F0000F20CDE901064FF48050CDE9040501A871
:1029000003210395FEF71CFD10B172B6FEE700BF70
:1029100012B070BD4EF68850CEF20000016841F44E
:10292000700101607047000040F22410C2F2000004
:10293000FFF7B8B9B0B540F2FF7E0568C4F2000EEB
:1029400040F2000C7045C4F2010C1DDD40F600039E
:10295000C4F20003984220D060451ED040F60043E8
:10296000C4F20003984218D04FF6FF73C4F200037C
:1029700098421DDC704527DCB0F1804F3CD040F21E
:102980000043C4F2000335E0B0F1804F05D040F2BF
:102990000043C4F200039842E6D14B6825F0700270
:1029A00043EA02054FF6FF73C4F200039842E1DDEB
:1029B00044F2FF33C4F20103984211DC60451BD09E
:1029C00044F2000314E000BF40F60003C4F2000329
:1029D000984211D040F60043C4F200030AE000BF61
:1029E00044F60003C4F20103984205D044F20043C8
:1029F000C4F20103984204D1CB6825F4407243EA43
:102A000002050A688C684B696045C462826202D123
:102A10000969CCF83010026825F0800142F0040208
:102A200019430260012242610160B0BD806B002148
:102A3000C185FFF75FBA000081B090F842102229EB
:102A400021D183680246B3F5805F09D152F8281F6F
:102A500052F8183C002B63D003685B680AE000BFA3
:102A600052F8281F13B90369002BF5D003685B687F
:102A700003F07F030B70116801311160C18D0139C2
:102A80000A04C18502D001B0704700BF0168CA685E
:102A900022F02002CA60CA6822F48072CA604A69C1
:102AA00022F001024A61202180F842100021416396
:102AB000026B012A3CD10163016851E8031F0268DF
:102AC00021F0100142E80313DBB1016851E8031F54
:102AD000026821F0100142E8031393B1016851E844
:102AE000031F026821F0100142E803134BB1016893
:102AF00051E8031F026821F0100142E80313002B84
:102B0000DAD101680A68D20606D5002200920A6866
:102B10000092496800910099818D01B0FFF7E8B9F2
:102B2000026852686FF35F2221F8022B8162A5E7E9
:102B300001B0FFF73BBD0000B0B50446006804F1EA
:102B400008030ECB0569194325F440552A43026159
:102B50006269E3691143C268194349F20C639A43FD
:102B60001143C1604169A26921F4407141F20043FF
:102B7000114340F48062C4F201039A42416103D1DF
:102B8000FEF7A4FC02E000BFFEF78CFCE1694FF603
:102B90009C7563681922C0F6FF75B1F5004FA0FB64
:102BA00002011FD15A00DB0FFDF712FB48F21F5143
:102BB000C5F2EB11A0FB01235A0905F1805302FB7A
:102BC0000300322303EBC000A0FB01014FF4F870B7
:102BD00000EA111000EB0210C1F342110844216811
:102BE0008860B0BD9A009B0FFDF7F2FA48F21F51C2
:102BF000C5F2EB11A0FB01235A0902FB05003223A9
:102C000003EB0010A0FB0101F02000EA511000EBE3
:102C10000210C1F34311084421688860B0BD000070
:102C200040F26C10C2F20000FFF766B9FEE7000048
:102C3000FEF7DCFAFFF71CFEFFF762FDFFF732FD3F
:102C4000FFF7EEFDFFF7B0FDFFF7B6FC40F22410F2
:102C5000C2F20000FEF712FFFEE700000FB4054BC2
:102C600010B503A9044A029800F0DAF810BC5DF828
:102C700014FB00004F3500080000002002E008C8E7
:102C8000121F08C1002AFAD170477047002001E0E6
:102C900001C1121F002AFBD1704700002DE9FF5F20
:102CA00082B00021DDE90430020DDDF840B00343BD
:102CB00018D044F61050A2F2FF3242431514119876
:102CC00001281FD0A5EB0B00401C5FEA000A4FF063
:102CD00000064E4FDFF83891B046504615D5CAF180
:102CE000000413E0119801244AA3012801D16FEADE
:102CF0000B010298119AC0E90031C0E9024206B006
:102D0000BDE8F09FCBF10000DFE704460021404A18
:102D1000491842EB0450CDE9001012E0E00707D05B
:102D200032463B4640464946FDF784FB804689468D
:102D300032463B4610461946FDF77CFB06460F46D9
:102D40006410002CEAD1DDE90401DDE90023BAF1C9
:102D5000000F06DAFDF76EFB42464B46FDF76AFBB5
:102D600005E0FDF7D9FB42464B46FDF7D5FB04468F
:102D70000E460022284BFDF757FC03D84FF0FF30DA
:102D8000014607E00022254B20463146FDF7ABFA0D
:102D9000FDF731FC102409E0002C0ADB0A22002395
:102DA000FDF716FA039B30321A55641E50EA0102F1
:102DB000F2D1641C039AC4F111031444119A012A3C
:102DC00003D0012208430DD10AE0084304D00020BB
:102DD0004FF0110B119072E7A3EB0B056D1E0DE088
:102DE0005B4504DD4FF0000205F1010504E003DA64
:102DF0004FF00002A5F10105002AECD002981199CC
:102E0000C0E90231C0E9004579E700000000144044
:102E10000000F03F300000000000F0430000E03F01
:102E20002DE9FF4F95B09B468946064600250FE2E7
:102E3000252877D100242746F84A0121059400E08F
:102E4000044316F8013F203B01FA03F01042F7D18A
:102E500030782A2811D06FF02F033078A0F130029B
:102E6000092A16D8059A44F0020402EB820203EB09
:102E700042021044761C0590EFE759F8042B0592A6
:102E8000002A03DA504244F40054059044F002044E
:102E9000761C30782E2816D116F8010F44F0040461
:102EA0002A280DD06FF02F023078A0F13003092BC3
:102EB00009D807EB870302EB4303C718761CF3E737
:102EC00059F8047B761C30786C280FD006DC4C282F
:102ED00017D068280DD06A2814D104E0742810D0C7
:102EE0007A280FD10DE044F400140AE044F4801471
:102EF00001E044F440147278824202D104F5801457
:102F0000761C761C307866280BD013DC582877D0D6
:102F100009DC002875D04528F6D04628F4D047288B
:102F20001AD19DE118E0632835D0642879D065284E
:102F300012D195E1702873D008DC6728F1D0692898
:102F40006FD06E280DD06F2806D1B5E073282CD035
:102F5000752875D0782874D05A46179990476D1CFB
:102F600075E1C4F30250022809D003280DD0D9F826
:102F7000001004280DD00D6009F1040967E1D9F8AB
:102F80000010EA17C1E90052F6E7D9F800100D80E9
:102F9000F2E70D70F0E719F8041B8DF8001000201F
:102FA0008DF80100EA46012003E059F804AB4FF028
:102FB000FF3061074FF0000102D40DE008F101017C
:102FC0008846B9420FDA8045F8DB1AF80810002964
:102FD000F4D108E008F1010188468142FADB1AF8D1
:102FE00008100029F6D105985B46A0EB080721469A
:102FF0003846179A00F094FA284400EB080507E0D9
:103000004DE029E10DE01AF8010B5A461799904757
:10301000B8F10108F7D25B4621463846179A13E10A
:1030200042E00A220092C4F302524FF0000A022A40
:1030300008D059F804CB032A4FEAEC710AD00DE00E
:1030400029E02AE009F1070121F00702F2E802C1B4
:10305000914609E00FFA8CFC4FEAEC71042A03D187
:103060004FFA8CFC4FEAEC71002907DA0A4600217E
:10307000DCF1000C61EB02012D2202E0220504D5F7
:103080002B228DF80420012203E0E20701D0202248
:10309000F7E7904659E00A2102E010220DE01021E6
:1030A0004FF0000A00910BE010224FF0000A44F0AC
:1030B00004040827009203E008224FF0000A00925F
:1030C000C4F30252022A05D059F804CB0021032A86
:1030D00008D009E009F1070121F00702F2E802C176
:1030E000914605E01FFA8CFC042A01D10CF0FF0C7C
:1030F0004FF00008220728D5702806D0009B83F0E7
:10310000100353EA0A0305D00EE040228DF8042094
:10311000012208E05CEA010206D030228DF804208A
:103120008DF8050002229046009B83F0080353EAC5
:103130000A030AD15CEA010201D1620705D53022F7
:103140008DF804204FF001087F1E582804D034A0C9
:1031500003900EA802900DE036A0F9E753466046B2
:10316000009AFDF735F884460398825C0298401E69
:10317000029002705CEA0100F0D1029806A9081AD8
:1031800000F1200A600702D524F4803400E0012712
:10319000574502DDA7EB0A0000E0002000EB0A0122
:1031A000009005984144401A0590E00306D45B4620
:1031B0002146179A059800F0B3F90544002706E068
:1031C00001A85A46C05D179990476D1C7F1C474562
:1031D000F6DBE0030CD55B462146179A059800F014
:1031E0009FF9054404E030205A46179990476D1C1A
:1031F0000099481E00900029F5DC08E00298029929
:103200005A460078491C0291179990476D1CBAF1F3
:103210000001AAF1010AF1DC65E1000009280100C2
:10322000303132333435363738396162636465663C
:1032300000000000303132333435363738394142FE
:10324000434445460000000000F058F90544761C50
:10325000307800287FF4ECAD19B02846BDE8F08F37
:10326000620700D4062709F1070222F0070CFCE8E8
:103270000223E14603F000485FEA080C02D00FF297
:10328000702C0DE05FEA045C02D50FF2682C07E0B9
:103290005FEAC47C02D00FF2602C01E0AFF2700C48
:1032A0004FF0FF3823F00043CDF850C065280CD014
:1032B00006DC452809D046281DD047283DD13DE0F1
:1032C000662818D067287ED138E00021112F01DB55
:1032D000112000E0781CCDE9000106A90EA8FFF737
:1032E000DDFCDDE90F010E9A03910021009207F148
:1032F000010A04914DE04FF000400097CDE9011024
:1033000006A90EA8FFF7CAFCDDE90F0203920E9B87
:1033100011990022DDF80CA00093049211B9791CD8
:1033200000EB010AB7EB0A0004D4C0F1FF3007F14B
:10333000010A0490AAEB0700019044E0012F00DA93
:1033400001270021112F01DD112000E03846CDE9D1
:10335000000106A90EA8FFF7A1FCDDE90F010E9AF6
:103360000391002104910092BA4621070CD40399DD
:10337000514500DA8A46BAF1010F05DD009AAAF13B
:103380000101515C302908D0B84202DA10F1040F73
:1033900006DA0121CDE9011015E0AAF10101E9E702
:1033A000002805DC049901440491AAEB000102E025
:1033B000411C514500DD8A460499401A401C019089
:1033C0004FF000400290200704D40198504501DBE3
:1033D000CDF8048000208DF84F0002980DF14F07C2
:1033E000B0F1004F25D02B200E9002984FF002082C
:1033F00000280CDA404202902D200E9007E00A21AE
:103400000298FCF73BFF3031029007F8011DB8F13C
:103410000001A8F10108F2DC02980028EFD1791E22
:103420000E980870307800F0200040F0450007F852
:10343000020D12A8C01B00F107081498007800B113
:10344000012000EB0A01019801EBE071059841446D
:10345000401A401E0590E00306D45B462146179AA9
:10346000059800F05DF805441498007818B15A46A4
:10347000179990476D1CE00324D55B462146179AA7
:10348000059800F04DF805441CE00498002807DB7F
:10349000DDE90301884203DD0098405C179901E0F3
:1034A000179930205A469047049805F10105401CB1
:1034B00004900198401E019004D12E205A4617997D
:1034C00090476D1CBAF10001AAF1010ADDDC05E0AC
:1034D00017F8010B5A46179990476D1CB8F1000177
:1034E000A8F10108F4DC5B462146179A0598ABE683
:1034F0002D0000002B000000200000002DE9F0410D
:10350000044600251E461746880404D405E03946C3
:103510002020B0476D1C641EF9D52846BDE8F08117
:103520002DE9F041044600251E469046C80301D50A
:10353000302700E02027880404D505E041463846BE
:10354000B0476D1C641EF9D52846BDE8F08138B53A
:1035500004468DF8000069460320ABBE204638BD06
:103560000000000000000000010203040607080933
:1035700000000000010203040006101600061016E9
:10358000A035000800000020100000007C2C00087E
:10359000B035000810000020A80500008C2C0008A1
:1035A0000000000001000000100000000024F400F2
:040000050800019955
:00000001FF
